{
  "_format": "hh-sol-artifact-1",
  "contractName": "Bidding",
  "sourceName": "contracts/Bidding.sol",
  "abi": [
    {
      "anonymous": false,
      "inputs": [
        {
          "indexed": false,
          "internalType": "uint256",
          "name": "bidId",
          "type": "uint256"
        },
        {
          "indexed": false,
          "internalType": "uint256",
          "name": "tenderId",
          "type": "uint256"
        },
        {
          "indexed": false,
          "internalType": "address",
          "name": "contractor",
          "type": "address"
        }
      ],
      "name": "BidApproved",
      "type": "event"
    },
    {
      "anonymous": false,
      "inputs": [
        {
          "indexed": false,
          "internalType": "uint256",
          "name": "bidId",
          "type": "uint256"
        },
        {
          "indexed": false,
          "internalType": "uint256",
          "name": "tenderId",
          "type": "uint256"
        },
        {
          "indexed": false,
          "internalType": "string",
          "name": "contractorMongoId",
          "type": "string"
        }
      ],
      "name": "BidPlaced",
      "type": "event"
    },
    {
      "anonymous": false,
      "inputs": [
        {
          "indexed": false,
          "internalType": "uint256",
          "name": "contractId",
          "type": "uint256"
        },
        {
          "indexed": false,
          "internalType": "uint256",
          "name": "tenderId",
          "type": "uint256"
        },
        {
          "indexed": false,
          "internalType": "address",
          "name": "contractor",
          "type": "address"
        }
      ],
      "name": "ContractCreated",
      "type": "event"
    },
    {
      "inputs": [
        {
          "internalType": "uint256",
          "name": "_tenderId",
          "type": "uint256"
        },
        {
          "internalType": "uint256",
          "name": "_bidId",
          "type": "uint256"
        }
      ],
      "name": "approveBid",
      "outputs": [],
      "stateMutability": "nonpayable",
      "type": "function"
    },
    {
      "inputs": [
        {
          "internalType": "uint256",
          "name": "",
          "type": "uint256"
        }
      ],
      "name": "contracts",
      "outputs": [
        {
          "internalType": "uint256",
          "name": "contractId",
          "type": "uint256"
        },
        {
          "internalType": "uint256",
          "name": "tenderId",
          "type": "uint256"
        },
        {
          "internalType": "uint256",
          "name": "winningBidId",
          "type": "uint256"
        },
        {
          "internalType": "address",
          "name": "contractor",
          "type": "address"
        },
        {
          "internalType": "string",
          "name": "contractorMongoId",
          "type": "string"
        },
        {
          "internalType": "uint256",
          "name": "contractAmount",
          "type": "uint256"
        },
        {
          "internalType": "bool",
          "name": "isCompleted",
          "type": "bool"
        }
      ],
      "stateMutability": "view",
      "type": "function"
    },
    {
      "inputs": [
        {
          "internalType": "uint256",
          "name": "_tenderId",
          "type": "uint256"
        }
      ],
      "name": "getBids",
      "outputs": [
        {
          "components": [
            {
              "internalType": "uint256",
              "name": "bidId",
              "type": "uint256"
            },
            {
              "internalType": "uint256",
              "name": "tenderId",
              "type": "uint256"
            },
            {
              "internalType": "address",
              "name": "contractor",
              "type": "address"
            },
            {
              "internalType": "string",
              "name": "contractorMongoId",
              "type": "string"
            },
            {
              "internalType": "uint256",
              "name": "bidAmount",
              "type": "uint256"
            },
            {
              "internalType": "string",
              "name": "proposalDocument",
              "type": "string"
            },
            {
              "internalType": "uint256",
              "name": "experienceYears",
              "type": "uint256"
            },
            {
              "internalType": "uint256",
              "name": "contractorRating",
              "type": "uint256"
            },
            {
              "internalType": "bool",
              "name": "isApproved",
              "type": "bool"
            }
          ],
          "internalType": "struct Bidding.Bid[]",
          "name": "",
          "type": "tuple[]"
        }
      ],
      "stateMutability": "view",
      "type": "function"
    },
    {
      "inputs": [
        {
          "internalType": "uint256",
          "name": "_contractId",
          "type": "uint256"
        }
      ],
      "name": "getContract",
      "outputs": [
        {
          "components": [
            {
              "internalType": "uint256",
              "name": "contractId",
              "type": "uint256"
            },
            {
              "internalType": "uint256",
              "name": "tenderId",
              "type": "uint256"
            },
            {
              "internalType": "uint256",
              "name": "winningBidId",
              "type": "uint256"
            },
            {
              "internalType": "address",
              "name": "contractor",
              "type": "address"
            },
            {
              "internalType": "string",
              "name": "contractorMongoId",
              "type": "string"
            },
            {
              "internalType": "uint256",
              "name": "contractAmount",
              "type": "uint256"
            },
            {
              "internalType": "bool",
              "name": "isCompleted",
              "type": "bool"
            }
          ],
          "internalType": "struct Bidding.Contract",
          "name": "",
          "type": "tuple"
        }
      ],
      "stateMutability": "view",
      "type": "function"
    },
    {
      "inputs": [
        {
          "internalType": "uint256",
          "name": "_tenderId",
          "type": "uint256"
        },
        {
          "internalType": "string",
          "name": "_contractorMongoId",
          "type": "string"
        },
        {
          "internalType": "uint256",
          "name": "_bidAmount",
          "type": "uint256"
        },
        {
          "internalType": "string",
          "name": "_proposalDocument",
          "type": "string"
        },
        {
          "internalType": "uint256",
          "name": "_experienceYears",
          "type": "uint256"
        },
        {
          "internalType": "uint256",
          "name": "_contractorRating",
          "type": "uint256"
        }
      ],
      "name": "placeBid",
      "outputs": [],
      "stateMutability": "nonpayable",
      "type": "function"
    },
    {
      "inputs": [
        {
          "internalType": "uint256",
          "name": "",
          "type": "uint256"
        },
        {
          "internalType": "uint256",
          "name": "",
          "type": "uint256"
        }
      ],
      "name": "tenderBids",
      "outputs": [
        {
          "internalType": "uint256",
          "name": "bidId",
          "type": "uint256"
        },
        {
          "internalType": "uint256",
          "name": "tenderId",
          "type": "uint256"
        },
        {
          "internalType": "address",
          "name": "contractor",
          "type": "address"
        },
        {
          "internalType": "string",
          "name": "contractorMongoId",
          "type": "string"
        },
        {
          "internalType": "uint256",
          "name": "bidAmount",
          "type": "uint256"
        },
        {
          "internalType": "string",
          "name": "proposalDocument",
          "type": "string"
        },
        {
          "internalType": "uint256",
          "name": "experienceYears",
          "type": "uint256"
        },
        {
          "internalType": "uint256",
          "name": "contractorRating",
          "type": "uint256"
        },
        {
          "internalType": "bool",
          "name": "isApproved",
          "type": "bool"
        }
      ],
      "stateMutability": "view",
      "type": "function"
    }
  ],
  "bytecode": "0x6080604052348015600f57600080fd5b5061199c8061001f6000396000f3fe608060405234801561001057600080fd5b50600436106100625760003560e01c8063131d9a27146100675780631766b13e14610097578063474da79a146100b35780634ef417b1146100e95780636ebc8c8614610105578063c23c252a14610135575b600080fd5b610081600480360381019061007c9190610da9565b61016d565b60405161008e919061105f565b60405180910390f35b6100b160048036038101906100ac91906111b6565b6103a7565b005b6100cd60048036038101906100c89190610da9565b610562565b6040516100e097969594939291906112f2565b60405180910390f35b61010360048036038101906100fe9190611368565b610659565b005b61011f600480360381019061011a9190610da9565b610a0a565b60405161012c9190611444565b60405180910390f35b61014f600480360381019061014a9190611368565b610b62565b60405161016499989796959493929190611466565b60405180910390f35b606060026000838152602001908152602001600020805480602002602001604051908101604052809291908181526020016000905b8282101561039c57838290600052602060002090600902016040518061012001604052908160008201548152602001600182015481526020016002820160009054906101000a900473ffffffffffffffffffffffffffffffffffffffff1673ffffffffffffffffffffffffffffffffffffffff1673ffffffffffffffffffffffffffffffffffffffff16815260200160038201805461024090611530565b80601f016020809104026020016040519081016040528092919081815260200182805461026c90611530565b80156102b95780601f1061028e576101008083540402835291602001916102b9565b820191906000526020600020905b81548152906001019060200180831161029c57829003601f168201915b50505050508152602001600482015481526020016005820180546102dc90611530565b80601f016020809104026020016040519081016040528092919081815260200182805461030890611530565b80156103555780601f1061032a57610100808354040283529160200191610355565b820191906000526020600020905b81548152906001019060200180831161033857829003601f168201915b5050505050815260200160068201548152602001600782015481526020016008820160009054906101000a900460ff161515151581525050815260200190600101906101a2565b505050509050919050565b6000808154809291906103b990611590565b91905055506002600087815260200190815260200160002060405180610120016040528060005481526020018881526020013373ffffffffffffffffffffffffffffffffffffffff168152602001878152602001868152602001858152602001848152602001838152602001600015158152509080600181540180825580915050600190039060005260206000209060090201600090919091909150600082015181600001556020820151816001015560408201518160020160006101000a81548173ffffffffffffffffffffffffffffffffffffffff021916908373ffffffffffffffffffffffffffffffffffffffff16021790555060608201518160030190816104c59190611784565b506080820151816004015560a08201518160050190816104e59190611784565b5060c0820151816006015560e082015181600701556101008201518160080160006101000a81548160ff02191690831515021790555050507fc7f08f58a2f519f29756f46061251a750f3ad3b9bdfec83363e43fa1f54292a9600054878760405161055293929190611856565b60405180910390a1505050505050565b60036020528060005260406000206000915090508060000154908060010154908060020154908060030160009054906101000a900473ffffffffffffffffffffffffffffffffffffffff16908060040180546105bd90611530565b80601f01602080910402602001604051908101604052809291908181526020018280546105e990611530565b80156106365780601f1061060b57610100808354040283529160200191610636565b820191906000526020600020905b81548152906001019060200180831161061957829003601f168201915b5050505050908060050154908060060160009054906101000a900460ff16905087565b6000600260008481526020019081526020016000209050600060606000806000905060005b8580549050811015610860578686828154811061069e5761069d611894565b5b906000526020600020906009020160000154036108535760018682815481106106ca576106c9611894565b5b906000526020600020906009020160080160006101000a81548160ff02191690831515021790555085818154811061070557610704611894565b5b906000526020600020906009020160020160009054906101000a900473ffffffffffffffffffffffffffffffffffffffff16945085818154811061074c5761074b611894565b5b9060005260206000209060090201600301805461076890611530565b80601f016020809104026020016040519081016040528092919081815260200182805461079490611530565b80156107e15780601f106107b6576101008083540402835291602001916107e1565b820191906000526020600020905b8154815290600101906020018083116107c457829003601f168201915b505050505093508581815481106107fb576107fa611894565b5b9060005260206000209060090201600401549250600191507f017acf83e4f0efeb08ffd6ba49cc57039e5ce14d903a1e76ac2a4f93e29eb52a878987604051610846939291906118c3565b60405180910390a1610860565b808060010191505061067e565b50806108a1576040517f08c379a000000000000000000000000000000000000000000000000000000000815260040161089890611946565b60405180910390fd5b600160008154809291906108b490611590565b91905055506040518060e0016040528060015481526020018881526020018781526020018573ffffffffffffffffffffffffffffffffffffffff1681526020018481526020018381526020016000151581525060036000600154815260200190815260200160002060008201518160000155602082015181600101556040820151816002015560608201518160030160006101000a81548173ffffffffffffffffffffffffffffffffffffffff021916908373ffffffffffffffffffffffffffffffffffffffff16021790555060808201518160040190816109969190611784565b5060a0820151816005015560c08201518160060160006101000a81548160ff0219169083151502179055509050507ff5f990baeb36c54410688d81d354cda0452f0611033534842e880d2a7ee3f01f60015488866040516109f9939291906118c3565b60405180910390a150505050505050565b610a12610d0a565b600360008381526020019081526020016000206040518060e00160405290816000820154815260200160018201548152602001600282015481526020016003820160009054906101000a900473ffffffffffffffffffffffffffffffffffffffff1673ffffffffffffffffffffffffffffffffffffffff1673ffffffffffffffffffffffffffffffffffffffff168152602001600482018054610ab490611530565b80601f0160208091040260200160405190810160405280929190818152602001828054610ae090611530565b8015610b2d5780601f10610b0257610100808354040283529160200191610b2d565b820191906000526020600020905b815481529060010190602001808311610b1057829003601f168201915b50505050508152602001600582015481526020016006820160009054906101000a900460ff1615151515815250509050919050565b60026020528160005260406000208181548110610b7e57600080fd5b9060005260206000209060090201600091509150508060000154908060010154908060020160009054906101000a900473ffffffffffffffffffffffffffffffffffffffff1690806003018054610bd490611530565b80601f0160208091040260200160405190810160405280929190818152602001828054610c0090611530565b8015610c4d5780601f10610c2257610100808354040283529160200191610c4d565b820191906000526020600020905b815481529060010190602001808311610c3057829003601f168201915b505050505090806004015490806005018054610c6890611530565b80601f0160208091040260200160405190810160405280929190818152602001828054610c9490611530565b8015610ce15780601f10610cb657610100808354040283529160200191610ce1565b820191906000526020600020905b815481529060010190602001808311610cc457829003601f168201915b5050505050908060060154908060070154908060080160009054906101000a900460ff16905089565b6040518060e00160405280600081526020016000815260200160008152602001600073ffffffffffffffffffffffffffffffffffffffff16815260200160608152602001600081526020016000151581525090565b6000604051905090565b600080fd5b600080fd5b6000819050919050565b610d8681610d73565b8114610d9157600080fd5b50565b600081359050610da381610d7d565b92915050565b600060208284031215610dbf57610dbe610d69565b5b6000610dcd84828501610d94565b91505092915050565b600081519050919050565b600082825260208201905092915050565b6000819050602082019050919050565b610e0b81610d73565b82525050565b600073ffffffffffffffffffffffffffffffffffffffff82169050919050565b6000610e3c82610e11565b9050919050565b610e4c81610e31565b82525050565b600081519050919050565b600082825260208201905092915050565b60005b83811015610e8c578082015181840152602081019050610e71565b60008484015250505050565b6000601f19601f8301169050919050565b6000610eb482610e52565b610ebe8185610e5d565b9350610ece818560208601610e6e565b610ed781610e98565b840191505092915050565b60008115159050919050565b610ef781610ee2565b82525050565b600061012083016000830151610f166000860182610e02565b506020830151610f296020860182610e02565b506040830151610f3c6040860182610e43565b5060608301518482036060860152610f548282610ea9565b9150506080830151610f696080860182610e02565b5060a083015184820360a0860152610f818282610ea9565b91505060c0830151610f9660c0860182610e02565b5060e0830151610fa960e0860182610e02565b50610100830151610fbe610100860182610eee565b508091505092915050565b6000610fd58383610efd565b905092915050565b6000602082019050919050565b6000610ff582610dd6565b610fff8185610de1565b93508360208202850161101185610df2565b8060005b8581101561104d578484038952815161102e8582610fc9565b945061103983610fdd565b925060208a01995050600181019050611015565b50829750879550505050505092915050565b600060208201905081810360008301526110798184610fea565b905092915050565b600080fd5b600080fd5b7f4e487b7100000000000000000000000000000000000000000000000000000000600052604160045260246000fd5b6110c382610e98565b810181811067ffffffffffffffff821117156110e2576110e161108b565b5b80604052505050565b60006110f5610d5f565b905061110182826110ba565b919050565b600067ffffffffffffffff8211156111215761112061108b565b5b61112a82610e98565b9050602081019050919050565b82818337600083830152505050565b600061115961115484611106565b6110eb565b90508281526020810184848401111561117557611174611086565b5b611180848285611137565b509392505050565b600082601f83011261119d5761119c611081565b5b81356111ad848260208601611146565b91505092915050565b60008060008060008060c087890312156111d3576111d2610d69565b5b60006111e189828a01610d94565b965050602087013567ffffffffffffffff81111561120257611201610d6e565b5b61120e89828a01611188565b955050604061121f89828a01610d94565b945050606087013567ffffffffffffffff8111156112405761123f610d6e565b5b61124c89828a01611188565b935050608061125d89828a01610d94565b92505060a061126e89828a01610d94565b9150509295509295509295565b61128481610d73565b82525050565b61129381610e31565b82525050565b600082825260208201905092915050565b60006112b582610e52565b6112bf8185611299565b93506112cf818560208601610e6e565b6112d881610e98565b840191505092915050565b6112ec81610ee2565b82525050565b600060e082019050611307600083018a61127b565b611314602083018961127b565b611321604083018861127b565b61132e606083018761128a565b818103608083015261134081866112aa565b905061134f60a083018561127b565b61135c60c08301846112e3565b98975050505050505050565b6000806040838503121561137f5761137e610d69565b5b600061138d85828601610d94565b925050602061139e85828601610d94565b9150509250929050565b600060e0830160008301516113c06000860182610e02565b5060208301516113d36020860182610e02565b5060408301516113e66040860182610e02565b5060608301516113f96060860182610e43565b50608083015184820360808601526114118282610ea9565b91505060a083015161142660a0860182610e02565b5060c083015161143960c0860182610eee565b508091505092915050565b6000602082019050818103600083015261145e81846113a8565b905092915050565b60006101208201905061147c600083018c61127b565b611489602083018b61127b565b611496604083018a61128a565b81810360608301526114a881896112aa565b90506114b7608083018861127b565b81810360a08301526114c981876112aa565b90506114d860c083018661127b565b6114e560e083018561127b565b6114f36101008301846112e3565b9a9950505050505050505050565b7f4e487b7100000000000000000000000000000000000000000000000000000000600052602260045260246000fd5b6000600282049050600182168061154857607f821691505b60208210810361155b5761155a611501565b5b50919050565b7f4e487b7100000000000000000000000000000000000000000000000000000000600052601160045260246000fd5b600061159b82610d73565b91507fffffffffffffffffffffffffffffffffffffffffffffffffffffffffffffffff82036115cd576115cc611561565b5b600182019050919050565b60008190508160005260206000209050919050565b60006020601f8301049050919050565b600082821b905092915050565b60006008830261163a7fffffffffffffffffffffffffffffffffffffffffffffffffffffffffffffffff826115fd565b61164486836115fd565b95508019841693508086168417925050509392505050565b6000819050919050565b600061168161167c61167784610d73565b61165c565b610d73565b9050919050565b6000819050919050565b61169b83611666565b6116af6116a782611688565b84845461160a565b825550505050565b600090565b6116c46116b7565b6116cf818484611692565b505050565b5b818110156116f3576116e86000826116bc565b6001810190506116d5565b5050565b601f82111561173857611709816115d8565b611712846115ed565b81016020851015611721578190505b61173561172d856115ed565b8301826116d4565b50505b505050565b600082821c905092915050565b600061175b6000198460080261173d565b1980831691505092915050565b6000611774838361174a565b9150826002028217905092915050565b61178d82610e52565b67ffffffffffffffff8111156117a6576117a561108b565b5b6117b08254611530565b6117bb8282856116f7565b600060209050601f8311600181146117ee57600084156117dc578287015190505b6117e68582611768565b86555061184e565b601f1984166117fc866115d8565b60005b82811015611824578489015182556001820191506020850194506020810190506117ff565b86831015611841578489015161183d601f89168261174a565b8355505b6001600288020188555050505b505050505050565b600060608201905061186b600083018661127b565b611878602083018561127b565b818103604083015261188a81846112aa565b9050949350505050565b7f4e487b7100000000000000000000000000000000000000000000000000000000600052603260045260246000fd5b60006060820190506118d8600083018661127b565b6118e5602083018561127b565b6118f2604083018461128a565b949350505050565b7f426964206e6f7420666f756e6400000000000000000000000000000000000000600082015250565b6000611930600d83611299565b915061193b826118fa565b602082019050919050565b6000602082019050818103600083015261195f81611923565b905091905056fea2646970667358221220815a537f7ecd286e2f4625841ad39c2712322bfdab1dfab5a8583e3a07e9102464736f6c634300081c0033",
  "linkReferences": {},
  "deployedLinkReferences": {}
}